:020000000328D3
:100006008316031386010130831286000230FB003B
:100016000430FC00BA30FD00FD0B0F28FC0B0F2846
:10002600FB0B0F280000023086000230FB00043074
:10003600FC00BA30FD00FD0B1E28FC0B1E28FB0B36
:100046001E280000043086000230FB000430FC004D
:10005600BA30FD00FD0B2D28FC0B2D28FB0B2D289F
:100066000000083086000230FB000430FC00BA3085
:10007600FD00FD0B3C28FC0B3C28FB0B3C2800003C
:10008600103086000230FB000430FC00BA30FD0060
:10009600FD0B4B28FC0B4B28FB0B4B2800001030AC
:0600A60086000328552826
:02400E004A2F37
:00000001FF
