:02000000DB28FB
:1000060083120313FB01FA01F9018030F800F10CA9
:10001600F00C031C17287408F90775080318750FE8
:10002600FA070318FB0A0310F01F1F287408FA07C3
:1000360075080318750FFB07FB0CFA0CF90CF80C86
:10004600031C0A287B08F3007A08F2007908F100FD
:060056007808F00008002C
:0C005C00831203139B011D129D1208006B
:0C00680083120313950117129712080071
:10007400FF30831203138500FF308316850083123B
:1000840086018316860183128701831687018312F2
:1000940012109210C730831692003420121092105E
:0A00A400C730831692002E200800DA
:1000AE00831603131208013EF000F1010318F10A42
:1000BE0083122408F400F50103200630F2007008C4
:1000CE00F4007108F500720803197228F50CF40C8F
:1000DE00F513FF3E6B280430F1007408F000710830
:1000EE0003197D28F00D7010FF3E77283030700513
:1000FE00F3007408F0007508F100F10CF00CF11328
:10010E00F10CF00CF11370089B000F309D05730875
:04011E009D04080034
:10012200831603130711831212150C30970408006B
:10013200831603131208013EF000F1010318F10ABD
:1001420083122408F400F50103200630F20070083F
:10015200F4007108F50072080319B428F50CF40CC8
:10016200F513FF3EAD280430F1007408F000710869
:100172000319BF28F00D7010FF3EB928303070050A
:10018200F3007408F0007508F100F10CF00CF113A3
:10019200F10CF00CF113700895000F3097057308FD
:0401A20097040800B6
:1001A600831603138710831212150C309D04080062
:1001B6003A201030A0001030A1009120D320200852
:1001C600A40099202108A4005720051CF8283430E3
:1001D600FC00F130FD00FD0BEE28FC0BEE280000C4
:1001E6000000A00A2008A4009920851C08293430A4
:1001F600FC00F130FD00FD0BFE28FC0BFE28000084
:100206000000A0032008A4009920051D18293430F9
:10021600FC00F130FD00FD0B0E29FC0B0E29000041
:100226000000A10A2108A4005720851D2829343082
:10023600FC00F130FD00FD0B1E29FC0B1E29000001
:100246000000A1032108A40057200730FC007D30E0
:0E025600FD00FD0B2C29FC0B2C29E82831297A
:02400E004A2F37
:00000001FF
